:020000040800F2
:100000000000082435270008BB1E0008BD1E00089C
:10001000BF1E0008C11E0008C31E0008000000002B
:10002000000000000000000000000000C51E0008E5
:10003000C71E000800000000C91E0008CB1E0008F3
:1000400085270008852700088527000885270008E0
:1000500085270008852700088527000885270008D0
:10006000852700088527000885270008CD1E000881
:10007000F11E00088527000885270008852700084D
:1000800085270008852700088527000885270008A0
:100090008527000885270008852700088527000890
:1000A000852700088527000885270008111F0008FC
:1000B00085270008691F0008852700088527000894
:1000C0008527000885270008852700088527000860
:1000D000852700082D2000088527000885270008AF
:1000E00085270008852700080000000085270008F4
:1000F0008527000885270008852700088527000830
:10010000852700088527000885270008852700081F
:10011000852700088527000885270008852700080F
:1001200085270008852700088527000885270008FF
:1001300085270008852700088527000885270008EF
:1001400000000000000000000000000000000000AF
:1001500085270008852700088527000885270008CF
:1001600085270008852700088527000885270008BF
:100170008527000885270008852700080000000063
:10018000852700088527000885270008852700089F
:10019000852700088527000885270008852700088F
:1001A000852700088527000885270008852700087F
:1001B000852700088527000885270008852700086F
:1001C000852700088527000885270008852700085F
:1001D000852700088527000885270008852700084F
:1001E000852700088527000885270008852700083F
:1001F000852700088527000885270008852700082F
:10020000852700088527000885270008852700081E
:10021000852700088527000885270008852700080E
:1002200085270008852700088527000800000000B2
:1002300085270008852700080000000085270008A2
:1002400085270008852700088527000885270008DE
:1002500085270008852700088527000885270008CE
:1002600085270008852700088527000885270008BE
:100270008527000885270008852700080000000062
:100280008527000885270008852700080000000052
:080290000000000085270008B2
:1002C00010B5054C237833B9044B13B10448AFF390
:1002D00000800123237010BD300A002400000000BC
:1002E000E892000808B5034B1BB103490348AFF37C
:1002F000008008BD00000000340A0024E8920008D5
:1003000081F0004102E000BF83F0004330B54FEAC6
:1003100041044FEA430594EA050F08BF90EA020F33
:100320001FBF54EA000C55EA020C7FEA645C7FEAC6
:10033000655C00F0E2804FEA5454D4EB5555B8BFE9
:100340006D420CDD2C4480EA020281EA030382EA5A
:10035000000083EA010180EA020281EA0303362DEC
:1003600088BF30BD11F0004F4FEA01314FF4801CBF
:100370004CEA113102D0404261EB410113F0004FD1
:100380004FEA03334CEA133302D0524263EB430388
:1003900094EA050F00F0A780A4F10104D5F1200E26
:1003A0000DDB02FA0EFC22FA05F2801841F1000181
:1003B00003FA0EF2801843FA05F359410EE0A5F155
:1003C00020050EF1200E012A03FA0EFC28BF4CF086
:1003D000020C43FA05F3C01851EBE37101F000453C
:1003E00007D54FF0000EDCF1000C7EEB00006EEB49
:1003F0000101B1F5801F1BD3B1F5001F0CD34908D3
:100400005FEA30004FEA3C0C04F101044FEA445229
:1004100012F5800F80F09A80BCF1004F08BF5FEAB0
:10042000500C50F1000041EB045141EA050130BD90
:100430005FEA4C0C404141EB0101013C28BFB1F5A2
:10044000801FE9D291F0000F04BF01460020B1FAED
:1004500081F308BF2033A3F10B03B3F120020CDAC0
:100460000C3208DD02F1140CC2F10C0201FA0CF09E
:1004700021FA02F10CE002F11402D8BFC2F1200C03
:1004800001FA02F120FA0CFCDCBF41EA0C019040B9
:10049000E41AA2BF01EB0451294330BD6FEA040402
:1004A0001F3C1CDA0C340EDC04F11404C4F12002ED
:1004B00020FA04F001FA02F340EA030021FA04F3FF
:1004C00045EA030130BDC4F10C04C4F1200220FA56
:1004D00002F001FA04F340EA0300294630BD21FA94
:1004E00004F0294630BD94F0000F83F4801306BF5A
:1004F00081F480110134013D4EE77FEA645C18BF4E
:100500007FEA655C29D094EA050F08BF90EA020FE4
:1005100005D054EA000C04BF1946104630BD91EADC
:10052000030F1EBF0021002030BD5FEA545C05D1DF
:100530004000494128BF41F0004130BD14F580041E
:100540003CBF01F5801130BD01F0004545F0FE4192
:1005500041F470014FF0000030BD7FEA645C1ABFC7
:10056000194610467FEA655C1CBF0B46024650EAFE
:10057000013406BF52EA033591EA030F41F400212A
:1005800030BD00BF90F0000F04BF0021704730B5B0
:100590004FF4806404F132044FF000054FF0000185
:1005A00050E700BF90F0000F04BF0021704730B546
:1005B0004FF4806404F1320410F0004548BF40421B
:1005C0004FF000013EE700BF42004FEAE2014FEA70
:1005D00031014FEA02701FBF12F07F4393F07F4F4B
:1005E00081F06051704732F07F4208BF704793F04E
:1005F0007F4F04BF41F40021704730B54FF4607461
:1006000001F0004521F000411CE700BF50EA010263
:1006100008BF704730B54FF000050AE050EA01020C
:1006200008BF704730B511F0004502D5404261EB7C
:1006300041014FF4806404F132045FEA915C3FF4BD
:10064000D8AE4FF003025FEADC0C18BF03325FEA5A
:10065000DC0C18BF033202EBDC02C2F1200300FA0B
:1006600003FC20FA02F001FA03FE40EA0E0021FA30
:1006700002F11444BDE600BF70B54FF0FF0C4CF41E
:10068000E06C1CEA11541DBF1CEA135594EA0C0FD0
:1006900095EA0C0F00F0DEF82C4481EA030621EA0B
:1006A0004C5123EA4C5350EA013518BF52EA033546
:1006B00041F4801143F4801338D0A0FB02CE4FF0F8
:1006C0000005E1FB02E506F00042E0FB03E54FF028
:1006D0000006E1FB03569CF0000F18BF4EF0010E20
:1006E000A4F1FF04B6F5007F64F5407404D25FEA1C
:1006F0004E0E6D4146EB060642EAC62141EA5551CF
:100700004FEAC52040EA5E504FEACE2EB4F1FD0C10
:1007100088BFBCF5E06F1ED8BEF1004F08BF5FEA8E
:10072000500E50F1000041EB045170BD06F0004640
:1007300046EA010140EA020081EA0301B4EB5C04ED
:10074000C2BFD4EB0C0541EA045170BD41F48011E5
:100750004FF0000E013C00F3AB8014F1360FDEBF0A
:10076000002001F0004170BDC4F10004203C35DAE6
:100770000C341BDC04F11404C4F1200500FA05F369
:1007800020FA04F001FA05F240EA020001F000420A
:1007900021F0004110EBD37021FA04F642EB060180
:1007A0005EEA430E08BF20EAD37070BDC4F10C04AA
:1007B000C4F1200500FA04F320FA05F001FA04F26E
:1007C00040EA020001F0004110EBD37041F100015A
:1007D0005EEA430E08BF20EAD37070BDC4F1200565
:1007E00000FA05F24EEA020E20FA04F301FA05F2CD
:1007F00043EA020321FA04F001F0004121FA04F275
:1008000020EA020000EBD3705EEA430E08BF20EA44
:10081000D37070BD94F0000F0FD101F0004640007E
:1008200041EB010111F4801F08BF013CF7D041EA00
:10083000060195F0000F18BF704703F00046520004
:1008400043EB030313F4801F08BF013DF7D043EAD5
:100850000603704794EA0C0F0CEA135518BF95EA8B
:100860000C0F0CD050EA410618BF52EA4306D1D112
:1008700081EA030101F000414FF0000070BD50EA31
:10088000410606BF1046194652EA430619D094EABB
:100890000C0F02D150EA013613D195EA0C0F05D1A5
:1008A00052EA03361CBF104619460AD181EA0301F9
:1008B00001F0004141F0FE4141F470014FF00000B1
:1008C00070BD41F0FE4141F4780170BD70B54FF04C
:1008D000FF0C4CF4E06C1CEA11541DBF1CEA1355CC
:1008E00094EA0C0F95EA0C0F00F0A7F8A4EB0504AE
:1008F00081EA030E52EA03354FEA013100F08880A5
:100900004FEA03334FF0805545EA131343EA12636D
:100910004FEA022245EA111545EA10654FEA002622
:100920000EF000419D4208BF964244F1FD0404F5DB
:10093000407402D25B084FEA3202B61A65EB030537
:100940005B084FEA32024FF480104FF4002CB6EBF4
:10095000020E75EB030E22BFB61A754640EA0C0074
:100960005B084FEA3202B6EB020E75EB030E22BFB4
:10097000B61A754640EA5C005B084FEA3202B6EBF5
:10098000020E75EB030E22BFB61A754640EA9C00B4
:100990005B084FEA3202B6EB020E75EB030E22BF84
:1009A000B61A754640EADC0055EA060E18D04FEA42
:1009B000051545EA16754FEA06164FEAC30343EAE2
:1009C00052734FEAC2025FEA1C1CC0D111F4801FAF
:1009D0000BD141EA00014FF000004FF0004CB6E7A8
:1009E00011F4801F04BF01430020B4F1FD0C88BF47
:1009F000BCF5E06F3FF6AFAEB5EB030C04BFB6EB52
:100A0000020C5FEA500C50F1000041EB045170BD44
:100A10000EF0004E4EEA113114EB5C04C2BFD4EB71
:100A20000C0541EA045170BD41F480114FF0000EF5
:100A3000013C90E645EA060E8DE60CEA135594EA71
:100A40000C0F08BF95EA0C0F3FF43BAF94EA0C0F74
:100A50000AD150EA01347FF434AF95EA0C0F7FF4E9
:100A600025AF104619462CE795EA0C0F06D152EA3D
:100A700003353FF4FDAE1046194622E750EA410621
:100A800018BF52EA43067FF4C5AE50EA41047FF432
:100A90000DAF52EA43057FF4EBAE12E74FEA410295
:100AA000B2F1E04324BFB3F5001CDCF1FE5C0DD9CC
:100AB00001F0004C4FEAC0024CEA5070B2F1004F16
:100AC00040EB830008BF20F00100704711F0804F19
:100AD00021D113F13872BCBF01F00040704741F4DE
:100AE00080114FEA5252C2F11802C2F1200C10FAE2
:100AF0000CF320FA02F018BF40F001004FEAC123C6
:100B00004FEAD32303FA0CFC40EA0C0023FA02F369
:100B10004FEA4303CCE77FEA625307D150EA01333F
:100B20001EBF4FF0FE4040F44000704701F000400F
:100B300040F0FE4040F40000704700BF80F00040ED
:100B400002E000BF81F0004142001FBF5FEA4103A5
:100B500092EA030F7FEA226C7FEA236C6AD04FEAA5
:100B60001262D2EB1363C1BFD218414048404140EA
:100B7000B8BF5B42192B88BF704710F0004F40F49C
:100B8000000020F07F4018BF404211F0004F41F4B8
:100B9000000121F07F4118BF494292EA030F3FD084
:100BA000A2F1010241FA03FC10EB0C00C3F1200397
:100BB00001FA03F100F0004302D5494260EB400026
:100BC000B0F5000F13D3B0F1807F06D340084FEA91
:100BD000310102F10102FE2A51D2B1F1004F40EB86
:100BE000C25008BF20F0010040EA030070474900EE
:100BF00040EB0000013A28BFB0F5000FEDD2B0FA8B
:100C000080FCACF1080CB2EB0C0200FA0CF0AABFAD
:100C100000EBC25052421843BCBFD040184370474B
:100C200092F0000F81F4000106BF80F40000013251
:100C3000013BB5E74FEA41037FEA226C18BF7FEA28
:100C4000236C21D092EA030F04D092F0000F08BF6A
:100C50000846704790EA010F1CBF0020704712F051
:100C60007F4F04D1400028BF40F00040704712F190
:100C700000723CBF00F50000704700F0004343F0F5
:100C8000FE4040F4000070477FEA226216BF08462B
:100C90007FEA23630146420206BF5FEA412390EAEE
:100CA000010F40F4800070474FF0000304E000BFE4
:100CB00010F0004348BF40425FEA000C08BF704795
:100CC00043F0964301464FF000001CE050EA010259
:100CD00008BF70474FF000030AE000BF50EA01026E
:100CE00008BF704711F0004302D5404261EB41015B
:100CF0005FEA010C02BF84460146002043F0B64380
:100D000008BFA3F18053A3F50003BCFA8CF2083AA4
:100D1000A3EBC25310DB01FA02FC634400FA02FCAD
:100D2000C2F12002BCF1004F20FA02F243EB0200B4
:100D300008BF20F00100704702F1200201FA02FC16
:100D4000C2F1200250EA4C0021FA02F243EB020009
:100D500008BF20EADC7070474FF0FF0C1CEAD0524D
:100D60001EBF1CEAD15392EA0C0F93EA0C0F6FD00E
:100D70001A4480EA010C400218BF5FEA41211ED0EC
:100D80004FF0006343EA501043EA5111A0FB0131D8
:100D90000CF00040B1F5000F3EBF490041EAD371AD
:100DA0005B0040EA010062F17F02FD2A1DD8B3F129
:100DB000004F40EBC25008BF20F00100704790F098
:100DC000000F0CF0004C08BF49024CEA502040EAEA
:100DD00051207F3AC2BFD2F1FF0340EAC2507047B0
:100DE00040F400004FF00003013A5DDC12F1190FEE
:100DF000DCBF00F000407047C2F10002410021FA60
:100E000002F1C2F1200200FA02FC5FEA310040F177
:100E1000000053EA4C0308BF20EADC70704792F0F0
:100E2000000F00F0004C02BF400010F4000F013A28
:100E3000F9D040EA0C0093F0000F01F0004C02BF23
:100E4000490011F4000F013BF9D041EA0C018FE792
:100E50000CEAD15392EA0C0F18BF93EA0C0F0AD098
:100E600030F0004C18BF31F0004CD8D180EA0100BE
:100E700000F00040704790F0000F17BF90F0004F57
:100E8000084691F0000F91F0004F14D092EA0C0F39
:100E900001D142020FD193EA0C0F03D14B0218BFCC
:100EA000084608D180EA010000F0004040F0FE4012
:100EB00040F40000704740F0FE4040F440007047AE
:100EC0004FF0FF0C1CEAD0521EBF1CEAD15392EA2D
:100ED0000C0F93EA0C0F69D0A2EB030280EA010C1D
:100EE00049024FEA402037D04FF0805343EA1111B6
:100EF00043EA10130CF000408B4238BF5B0042F114
:100F00007D024FF4000C8B4224BF5B1A40EA0C00B8
:100F1000B3EB510F24BFA3EB510340EA5C00B3EBEA
:100F2000910F24BFA3EB910340EA9C00B3EBD10FD8
:100F300024BFA3EBD10340EADC001B0118BF5FEA2A
:100F40001C1CE0D1FD2A3FF650AF8B4240EBC25053
:100F500008BF20F0010070470CF0004C4CEA502014
:100F60007F32C2BFD2F1FF0340EAC250704740F463
:100F700000004FF00003013A37E792F0000F00F055
:100F8000004C02BF400010F4000F013AF9D040EAD3
:100F90000C0093F0000F01F0004C02BF490011F467
:100FA000000F013BF9D041EA0C0195E70CEAD1535F
:100FB00092EA0C0F08D142027FF47DAF93EA0C0F46
:100FC0007FF470AF084676E793EA0C0F04D14B022A
:100FD0003FF44CAF08466EE730F0004C18BF31F0DC
:100FE000004CCAD130F000427FF45CAF31F00043D6
:100FF0007FF43CAF5FE700BF4FF0FF3C06E000BF6F
:101000004FF0010C02E000BF4FF0010C4DF804CD91
:101010004FEA40024FEA41037FEA226C18BF7FEAA1
:10102000236C11D001B052EA530C18BF90EA010FA3
:1010300058BFB2EB030088BFC81738BF6FEAE17032
:1010400018BF40F0010070477FEA226C02D15FEACE
:10105000402C05D17FEA236CE4D15FEA412CE1D03A
:101060005DF8040B704700BF844608466146FFE701
:101070000FB5FFF7C9FF002848BF10F1000F0FBDE3
:101080004DF808EDFFF7F4FF0CBF012000205DF8DC
:1010900008FB00BF4DF808EDFFF7EAFF34BF012061
:1010A00000205DF808FB00BF4DF808EDFFF7E0FFFA
:1010B00094BF012000205DF808FB00BF4DF808ED4B
:1010C000FFF7D2FF94BF012000205DF808FB00BFAE
:1010D0004DF808EDFFF7C8FF34BF012000205DF890
:1010E00008FB00BF42000ED2B2F1FE4F0BD34FF00F
:1010F0009E03B3EB126209D44FEA002343F000438E
:1011000023FA02F070474FF00000704712F1610FB0
:1011100001D1420202D14FF0FF3070474FF0000082
:10112000704700BF00000000000000000000000049
:1011300001F0FF01102A2BDB10F0070F08D010F888
:10114000013B013A8B422DD010F0070F42B3F6D18C
:10115000F0B441EA012141EA014122F007047FF0A5
:1011600000070023F0E80256083C85EA010586EAFC
:10117000010685FA47F5A3FA87F586FA47F6A5FA38
:1011800087F68EB9EED1F0BC01F0FF0102F0070244
:1011900032B110F8013B013A83EA010313B1F8D1EF
:1011A0000020704701387047002D06BF35460338D0
:1011B000073815F0010F07D1013015F4807F02BF09
:1011C000013015F4C03F0130F0BC0138704700BF5A
:1011D000844641EA000313F003036DD1403A41D342
:1011E00051F8043B40F8043B51F8043B40F8043B01
:1011F00051F8043B40F8043B51F8043B40F8043BF1
:1012000051F8043B40F8043B51F8043B40F8043BE0
:1012100051F8043B40F8043B51F8043B40F8043BD0
:1012200051F8043B40F8043B51F8043B40F8043BC0
:1012300051F8043B40F8043B51F8043B40F8043BB0
:1012400051F8043B40F8043B51F8043B40F8043BA0
:1012500051F8043B40F8043B51F8043B40F8043B90
:10126000403ABDD2303211D351F8043B40F8043B30
:1012700051F8043B40F8043B51F8043B40F8043B70
:1012800051F8043B40F8043B103AEDD20C3205D340
:1012900051F8043B40F8043B043AF9D2043208D038
:1012A000D2071CBF11F8013B00F8013B01D30B88AA
:1012B00003806046704700BF082A13D38B078DD088
:1012C00010F003038AD0C3F10403D21ADB071CBF5A
:1012D00011F8013B00F8013B80D331F8023B20F8C4
:1012E000023B7BE7043AD9D3013A11F8013B00F8FD
:1012F000013BF9D20B7803704B7843708B78837085
:101300006046704700000000000000000000000080
:1013100000000000000000000000000000000000CD
:1013200000000000000000000000000000000000BD
:1013300000000000000000000000000000000000AD
:1013400090F800F06DE9024520F007016FF0000C05
:1013500010F0070491F820F040F049804FF00004AD
:101360006FF00700D1E9002391F840F000F1080088
:1013700082FA4CF2A4FA8CF283FA4CF3A2FA8CF3C0
:101380004BBBD1E9022382FA4CF200F10800A4FA27
:101390008CF283FA4CF3A2FA8CF3E3B9D1E904237B
:1013A00082FA4CF200F10800A4FA8CF283FA4CF3B2
:1013B000A2FA8CF37BB9D1E9062301F1200182FA6C
:1013C0004CF200F10800A4FA8CF283FA4CF3A2FA72
:1013D0008CF3002BC6D0002A04BF04301A4612BA80
:1013E000B2FA82F2FDE8024500EBD2007047D1E983
:1013F000002304F00305C4F100004FEAC50514F012
:10140000040F91F840F00CFA05F562EA05021CBFE2
:1014100063EA050362464FF00004A9E74FF0FF3C82
:1014200006E000BF4FF0010C02E000BF4FF0010CDE
:101430004DF804CD4FEA410C7FEA6C5C4FEA430C57
:1014400018BF7FEA6C5C1BD001B050EA410C0CBFA6
:1014500052EA430C91EA030F02BF90EA020F002008
:10146000704710F1000F91EA030F58BF994208BF6F
:1014700090422CBFD8176FEAE37040F0010070472C
:101480004FEA410C7FEA6C5C02D150EA013C07D183
:101490004FEA430C7FEA6C5CD6D152EA033CD3D0CE
:1014A0005DF8040B704700BF8446104662468C46C8
:1014B0001946634600E000BF01B5FFF7B7FF0028FB
:1014C00048BF10F1000F01BD4DF808EDFFF7F4FF24
:1014D0000CBF012000205DF808FB00BF4DF808EDAF
:1014E000FFF7EAFF34BF012000205DF808FB00BFD2
:1014F0004DF808EDFFF7E0FF94BF012000205DF8F4
:1015000008FB00BF4DF808EDFFF7CEFF94BF0120A8
:1015100000205DF808FB00BF4DF808EDFFF7C4FFA1
:1015200034BF012000205DF808FB00BF4FEA410CEA
:101530007FEA6C5C02D150EA013C0AD14FEA430CCD
:101540007FEA6C5C02D152EA033C02D14FF000000A
:1015500070474FF0010070474FEA410212F5001248
:1015600015D211D56FF47873B3EB625212D94FEAEA
:10157000C12343F0004343EA505311F0004F23FAD4
:1015800002F018BF404270474FF00000704750EA29
:10159000013005D111F0004008BF6FF000407047E6
:1015A0004FF00000704700BF53B94AB9002908BF87
:1015B00000281CBF4FF0FF314FF0FF3000F074B92E
:1015C000ADF1080C6DE904CE00F006F8DDF804E09A
:1015D000DDE9022304B070472DE9F047089E0D466F
:1015E00004468846002B4DD18A42944668D9B2FA07
:1015F00082F252B101FA02F3C2F1200120FA01F1A4
:101600000CFA02FC41EA030894404FEA1C45210C05
:10161000B8FBF5FE1FFA8CF705FB1E8341EA034376
:101620000EFB07F199420BD91CEB03030EF1FF30BF
:1016300080F01E81994240F21B81AEF1020E63449C
:101640005B1AA4B2B3FBF5F005FB103344EA034484
:1016500000FB07F7A7420AD91CEB040400F1FF3393
:1016600080F00881A74240F2058164440238E41BFF
:1016700040EA0E4000211EB1D4400023C6E90043D9
:10168000BDE8F0878B4208D9002E00F0EE800021E3
:10169000C6E900050846BDE8F087B3FA83F10029E2
:1016A0004AD1AB4202D3824200F2F980841A65EB40
:1016B000030301209846002EE2D0C6E90048DFE788
:1016C00002B9FFDEB2FA82F2002A40F09180A1EB6B
:1016D0000C054FEA1C471FFA8CFE0121B5FBF7F3FE
:1016E00007FB1350250C45EA00450EFB03F0A8420A
:1016F00008D91CEB050503F1FF3802D2A84200F21D
:10170000CB8043462D1AA4B2B5FBF7F007FB10556A
:1017100044EA05440EFB00FEA64508D91CEB040470
:1017200000F1FF3502D2A64500F2BB802846A4EBAB
:101730000E0440EA03409EE7C1F120078B4022FAE5
:1017400007FC4CEA030C20FA07F405FA01F31C43EA
:10175000FD404FEA1C4900FA01F3B5FBF9F8200CF3
:101760001FFA8CFE09FB185540EA054508FB0EF0F0
:10177000A84202FA01F20BD91CEB050508F1FF3A69
:1017800080F08880A84240F28580A8F10208654474
:101790002D1AA4B2B5FBF9F009FB105544EA054532
:1017A00000FB0EFEAE4508D91CEB050500F1FF3429
:1017B0006CD2AE456AD90238654440EA0840A0FBC5
:1017C0000294A5EB0E05A542C846A64656D353D0B3
:1017D0005EB1B3EB080265EB0E0505FA07F722FAD6
:1017E00001F3CD401F43C6E900750021BDE8F08735
:1017F000C2F1200320FA03F10CFA02FC25FA03F3EC
:1018000095400D434FEA1C471FFA8CFEB3FBF7F1DE
:1018100007FB11302B0C43EA004301FB0EF098420A
:1018200004FA02F408D91CEB030301F1FF382FD2AC
:1018300098422DD9023963441B1AADB2B3FBF7F0BD
:1018400007FB103345EA034500FB0EF3AB4208D912
:101850001CEB050500F1FF3816D2AB4214D9023853
:101860006544ED1A40EA014138E73146304607E762
:101870008646E5E61846FAE64B45A9D2B9EB0208DA
:1018800064EB0C0E0138A3E74046EAE7204694E7F4
:101890004146D1E7D0467BE7023B654432E7084644
:1018A00009E76444023842E7704700BF82B01B4B2F
:1018B000D3F8D82042F00102C3F8D820D3F8D830AA
:1018C00003F001030193019B154BDA68154A0021CF
:1018D00082F80B134FF400611160DA68C2F3022240
:1018E000C2F10703042B28BF04231946131D062B3E
:1018F00011D9033A4FF0FF338B40DB4303F0010370
:1019000093401B01DBB2074A82F80C334FF480533B
:10191000136002B070470022ECE700BF0044025899
:1019200000ED00E000E100E000B58BB0002304937F
:10193000059306930793089309931F4BD3F8E02070
:1019400042F00402C3F8E020D3F8E02002F00402E1
:101950000392039AD3F8E02042F08002C3F8E0201B
:10196000D3F8E02002F080020292029AD3F8E0203D
:1019700042F00102C3F8E020D3F8E02002F00102B7
:101980000192019AD3F8E02042F01002C3F8E0205F
:10199000D3F8E03003F010030093009B07484FF4A6
:1019A00000538361049301230593089304A900F075
:1019B000EAFE0BB05DF804FB004402580008025830
:1019C00010B5504A136823F00F0343F0040313606B
:1019D0004C4B1B6803F00F03042BF9D14A4AD36820
:1019E00023F0070343F00203D360936943F44043B9
:1019F0009361454B9B6913F4005FFAD0434A136827
:101A000043F480331360414B1B6813F4003FFAD05A
:101A10003E4B9A6A22F0030242F002029A62DA6AAC
:101A200042F48032DA62DA6A22F00C0242F00802F2
:101A3000DA62DA6A22F00202DA629A6A22F47C72CC
:101A400042F050029A62196B314A0A4042F0BF02DA
:101A50001A631A6B22F47E4242F400721A631A6B04
:101A600022F4FE0242F4E0221A631A6B22F0FE42D4
:101A700042F080721A631A6842F080721A60234B37
:101A80001B6813F0007FFAD0204A936923F00F03FC
:101A900043F008039361136923F0070343F0030342
:101AA00013611A4B1B6903F03803182BF9D1174B3C
:101AB0009A6922F470629A619A6922F00F0242F0E8
:101AC00008029A61DA6922F0700242F04002DA619B
:101AD000DA6922F4E06242F48062DA619A6922F003
:101AE000700242F040029A611A6A22F0700242F0DB
:101AF00040021A62074C204601F066FC204601F0C5
:101B000089FC10BD002000520048025800440258D1
:101B100000FEFFFF00389C1C0C4B1B78672B0ED07F
:101B20006B2B0BD1094B5B78692B0AD0702B0AD039
:101B3000642B01D006487047064870477047044838
:101B40007047054870470548704700BF00000024F3
:101B5000D00A0024E80A0024E40A0024E00A002451
:101B60002DE9F843FFF7D8FF0646002313F0800F56
:101B700008D13D4AD25C3A2A02D00133DBB2F5E704
:101B8000002232600133DCB212E038493068FFF7DE
:101B9000E3F805463060344B185DFFF789F82946B5
:101BA000FEF7D2FF3249FEF7CDFF30600134E4B2D8
:101BB00014F0800F49D125462B4B1B5D2E2BE4D111
:101BC000631C294FF85C3038FEF7ECFC20A3D3E906
:101BD0000023FEF751FD804689463068FEF7F4FC8D
:101BE00042464B46FEF792FBFEF758FF0446306034
:101BF000AB1CF85C3038FEF7D5FC17A3D3E9002303
:101C0000FEF73AFD804689462046FEF7DDFC424657
:101C10004B46FEF77BFBFEF741FF04463060033581
:101C2000785D3038FEF7BEFC0DA3D3E90023FEF744
:101C300023FD804689462046FEF7C6FC42464B46B9
:101C4000FEF764FBFEF72AFF3060BDE8F88300BFB3
:101C50009A9999999999B93F7B14AE47E17A843F53
:101C6000FCA9F1D24D62503F000000240000204149
:101C700000004042016042608360009B8361019BE1
:101C80000362704700B585B0584BD3F8F42042F09A
:101C90000202C3F8F420D3F8F43003F002030393F4
:101CA000039B534BD96821F4E0610904090C514AA4
:101CB0000A43DA60DA68C2F30222C2F10703042B96
:101CC00028BF04231946131D062B40F28D80033ACA
:101CD0004FF0FF338B40DB4303F00F0393401B01B6
:101CE000DBB2434A82F82330FFF76AFEFFF71CFE9F
:101CF000FFF7DCFD00F078FA00F006FB00F09EFB39
:101D00003D4B6FF002021A616FF004021A616FF02E
:101D100001021A61DA6842F00202DA60DA6842F01F
:101D20000402DA60DA6842F00102DA601A6842F00E
:101D300001021A601A6A42F011021A62A3F57C438A
:101D40005A6C42F400425A641A6842F001021A6066
:101D5000DA6842F00102DA601A6A42F011021A628D
:101D6000264B0193264B00934FF07853254A264982
:101D70002648FFF77FFF264B53E8002F42F0200252
:101D800043E800210029F6D153E8002F42F0100269
:101D900043E800210029F7D11E4B1A6942F01002D6
:101DA0001A619A6A42F010029A621A6942F00102BC
:101DB0001A619A6A42F001029A62174B53E8002FA7
:101DC00042F0400243E800210029F6D153E8002FF9
:101DD00042F0800243E800210029F7D100F052FCD4
:101DE0000A2001F001FBF9E7002271E700440258E4
:101DF00000ED00E00003FA050000014000401C4631
:101E00000000FA449A99993D00007A43E00A0024C0
:101E10000010014000000240081001402DE9F0418F
:101E200004460846E66826611146FEF78BFE054625
:101E3000E0603146FEF786FEA168FEF78DFF06469C
:101E4000E06121682846FEF787FF01463046FEF72D
:101E50007BFE0646E06161682846FEF77DFF61690A
:101E6000FEF772FE05466061D4F8188008F100475D
:101E70003946FFF719F928B941462846FFF71EF9F8
:101E8000B8B14746676139463046FEF75DFE054604
:101E9000E061276A07F100463146FFF705F928B9E6
:101EA00039462846FFF70AF928B13E46E661BDE803
:101EB000F0812F46E6E72E46F8E7FEE7FEE7FEE76D
:101EC000FEE7FEE7704770477047704708B5074B5D
:101ED0001B6813F0200F08D0044B20229A601A6967
:101EE00022F001021A61FFF73BFE08BD000002402C
:101EF000064B1B6813F4006F07D0044B4FF40062CD
:101F00009A609A6A22F001029A62704700000240C9
:101F1000134B1B6913F0020F0DD011486FF0020331
:101F20000361104A13685168013341F100011360E5
:101F30005160002343620A4B1B6913F0040F0DD05C
:101F400007486FF004030361064A136851680133C0
:101F500041F100011360516000234362704700BFEC
:101F600000000140080B002438B5294B1B6913F011
:101F7000010F3AD0264B6FF001021A61254B264A19
:101F80001868596813685268C01A61EB0201FEF7BD
:101F90003DFB0022214BFEF76FFB19A3D3E9002381
:101FA000FEF794FC18A3D3E90023FEF78FFCFEF79D
:101FB00075FD02461A4B18601A4C1B4B19682046D7
:101FC000FFF72CFFE46900212046FFF781F868B194
:101FD0002046FFF787F80E4B586300229A630D4B9B
:101FE000D3E900010C4BC3E9000138BD084D0023C3
:101FF0006B6304F10040FFF775F8A863EFE700BFDB
:102000000000000000C060409A9999999999B93FE1
:1020100000040040080B0024D80A002400004240BD
:102020004C0A0024E00A0024D00A00240D4BDB698E
:1020300013F0100F14D00B4B10221A6203F57043EB
:102040001A6922F001021A61074ADA615969074ADE
:102050000A4042F080025A611A6942F001021A6194
:10206000704700BF00100140000000240000FFFF87
:102070000120704708B501F0D3F9162303604FF033
:10208000FF3008BD08B54FF0FF31FFF7F3FFFEE763
:1020900070B50C461646002506E0AFF300802146D9
:1020A00001F8010B01350C46B542F6DB304670BD38
:1020B00070B50C461646002504E014F8010BAFF38A
:1020C00000800135B542F8DB304670BD4FF0FF307F
:1020D00070474FF400534B60002070470120704759
:1020E0000020704710B503460C4A0D490D480068A2
:1020F00040B10C4800680344521A934206D8094A7A
:10210000136010BD0748084C0460F2E701F088F93D
:102110000C2303604FF0FF30F3E700BF00000824FA
:1021200000040000100B0024600B0024244B1B68EB
:1021300003F00F03062B06D8214A136823F00F0380
:1021400043F0070313601F4B1A6842F001021A6044
:1021500000221A6119681C4A0A401A60184B1B6851
:1021600013F0080F06D0164A136823F00F0343F04C
:1021700007031360134B00229A61DA611A62134954
:1021800099621349D962134919635A639963DA63EF
:1021900019645A64196821F4802119601A660E4B7B
:1021A0001A680E4B1340B3F1005F03D20C4B0122AF
:1021B000C3F808210B4B43F2D2021A60704700BFEC
:1021C00000200052004402587FEDF6EA00020202AD
:1021D0000000FF01800201010010005C0000FFFF11
:1021E000008000510040005210B58EB000240994C8
:1021F0000A940B940C940D940394049405940694FF
:1022000007940894394BD3F8F02042F00102C3F848
:10221000F020D3F8F02002F001020292029AD3F8E3
:10222000E02042F01002C3F8E020D3F8E03003F0E1
:1022300010030193019B4FF4206303930223049343
:102240000123089303A92A4800F09DFA294BDB6873
:10225000294B83F81B434FF000621A60ADF824400D
:102260000A9444F61F630B930C940D94234C09A914
:10227000204600F055FF236823F080032360A26806
:102280001F4B1340A360636823F0700363606368AF
:1022900023F470036360A36823F08003A360194BE9
:1022A0001A6822F0030242F001021A601A6822F052
:1022B0000C021A601A6822F0F0021A60226A42F0D8
:1022C0000A0222621A6822F4407242F480721A6092
:1022D0001A6822F440621A601A6822F470421A6086
:1022E000236A43F0A00323620EB010BD00440258DD
:1022F0000010025800ED00E000E100E000000140A5
:10230000F8BFFEFF180001402DE9F04397B000240C
:10231000119412941394149415942022214609A820
:1023200001F0A8F803940494059406940794089483
:102330003B4ED6F8E83043F00203C6F8E830D6F852
:10234000E83003F002030293029B364BDB68364B06
:1023500083F81D434FF000521A60EF23ADF844306C
:10236000129442F20F7313931494304D11A928461E
:1023700000F0D6FE2B6823F080032B60AA682C4B5C
:102380001340AB604FF08048D8F8183443F008038E
:10239000C8F81834602309930A940B940C944FF0F6
:1023A0000209CDF8349009AA0121284600F038FF2F
:1023B000204F3B6823F004033B60D8F8183443F403
:1023C0000063C8F8183409AA1021284600F028FF35
:1023D0003B6823F480633B606B6823F070036B60A1
:1023E000AB6823F08003AB60D6F8E03043F0010324
:1023F000C6F8E030D6F8E03003F001030193019B0A
:10240000C0230393CDF81090059406940794CDF85B
:10241000209003A9084800F0B6F917B0BDE8F08392
:102420000044025800ED00E000E100E0000400403C
:10243000F8BFFEFF180400400000025800B591B03C
:10244000202200210DEB020001F014F8002302937A
:10245000039304930593069307937D49D1F854247D
:1024600022F03802C1F854247A4AD2F8F01041F030
:102470001001C2F8F010D2F8F01001F01001019133
:102480000199D2F8E01041F00101C2F8E010D2F851
:10249000E02002F001020092009A4FF4C062029222
:1024A000022203920493059306930723079302A93C
:1024B000694800F068F9694BD3F8002822F0FF0260
:1024C00042F02902C3F800281A6922F0C0021A61FA
:1024D0001A6922F4403242F400321A611A6922F475
:1024E000907242F480721A611A6922F400721A61C1
:1024F0001A6942F480621A611A6922F4C0521A61A0
:102500001A6922F4C0421A615A6A22F004025A621D
:10251000D3F8042822F0FF0242F02A02C3F804286C
:102520009A6A22F0C00242F040029A629A6A22F449
:10253000403242F400329A629A6A22F4907242F473
:1025400080729A629A6A22F400729A629A6A42F4DB
:1025500080629A629A6A22F4C0529A629A6A22F45B
:10256000C0429A62DA6B22F00402DA633C4BDA680A
:10257000C2F30222C2F10703042B28BF0423194629
:10258000131D062B61D9033A4FF0FF338B40DB4319
:1025900003F0010393401B01DBB2324A82F825337A
:1025A00020235360002308934FF4E13209920A93E9
:1025B0000B930C930C220D920E930F9308A92A48AB
:1025C00000F058FE294B53E8002F22F0604243E808
:1025D00000210029F6D153E8002F22F0606243E881
:1025E00000210029F7D1204B1A6822F000521A600E
:1025F0005A6822F490425A609A6822F02A029A603D
:102600001A6842F001021A60174BDB6913F4001FCD
:10261000FAD0154BDB6913F4800FF5D00F4B144A39
:102620009A61144ADA6159691348014041F0800106
:102630005961124A1A63124A5A63DA6A024042F036
:102640008002DA6211B05DF804FB00229CE700BF53
:1026500000400258004402580000025800000240A6
:1026600000ED00E000E100E0001001400810014032
:1026700024100140000000240000FFFF281001404A
:10268000500A00242DE9F04188B0224B1E685F6893
:10269000D3F80880204B1868FDF796FF04460D46D6
:1026A0004046FDF791FFCDE906013846FDF78CFF66
:1026B000CDE904013046FDF787FFCDE90201174B54
:1026C0001868FDF781FFCDE9000122462B46144929
:1026D000144800F021FF144B9B6A13F0010FFAD14C
:1026E00012494B691A0402F00052DB4303F4005311
:1026F00013438B610C4B0B4A5A63D96A0C4A0A404C
:1027000042F08002DA629A6A42F001029A6208B0EC
:10271000BDE8F081E00A00244C0A0024D00A00241D
:1027200000930008500A00240000024000080258EC
:102730000000FFFFDFF834D0FFF7F8FC0C480D492C
:102740000D4A002302E0D458C4500433C4188C420C
:10275000F9D30A4A0A4C002301E013600432A24272
:10276000FBD300F063FEFFF78DFA704700000824EA
:1027700000000024300A00246C970008300A00246E
:102780005C0B0024FEE770B50A6892FAA2F212B15F
:10279000B2FA82F21BE0202219E0C46803FB03FEB8
:1027A0000EEB4E056FEA050C24EA05040D690EFBDD
:1027B00005F52C43C4604C68022C2DD04C6803688E
:1027C0000CEA03030EFB04F42343036001320B689D
:1027D00033FA02F443D04FF0010C0CFA02FC1CEA6D
:1027E0000303F3D04C68013C012CD6D88D68846873
:1027F00003FB03FC0CEB4C0624EA06040CFB05F57A
:102800002C4384600D68CE68446824EA050406FB06
:1028100005F52C434460C0E7FF2B0ED84D69046AD0
:102820000EFB03F606FB03F3C3EB031624EA0604D0
:1028300005FB03F323430362C0E74C69456A1B0AA7
:1028400003FB03F603FB06F606FB03F3C3EB0316D9
:1028500025EA060504FB03F32B434362AEE70020A1
:1028600070BD0000044B9B6903F00F03034AD35C67
:1028700003F01F03D8407047004402581893000823
:10288000044BDB69C3F30213034AD35C03F01F0359
:10289000D84070470044025818930008044BDB6985
:1028A000C3F30223034AD35C03F01F03D8407047ED
:1028B0000044025818930008F8B50F4615461E4606
:1028C000FEF7F2F904463846FEF7EEF901462046D7
:1028D000FEF7F6FA04462846FEF7E6F905463046C6
:1028E000FEF7E2F94FF06451FEF736FA014628464A
:1028F000FEF72AF901462046FEF72EFA044606980E
:10290000FEF7D2F901462046FEF7DAFAFEF7EAFBB7
:10291000F8BD00002DE9F04182B00446394B9B6AB6
:1029200003F00303012B5ED0022B63D0002B4FD0AA
:102930000026002323606360A360324B9F6AC7F3C5
:1029400005171A6BC2F3080202F10108DD6A15F0DF
:10295000010502D05D6BC5F3CC05002F35D0294BA6
:10296000DB6A13F4803F0CD0264B1B6BC3F346236A
:10297000013300932B46424639463046FFF79CFF11
:102980002060204BDB6A13F4003F0CD01D4B1B6B07
:10299000C3F30643013300932B4642463946304683
:1029A000FFF78AFF6060174BDB6A13F4802F0CD0AF
:1029B000144B1B6BC3F30663013300932B46424653
:1029C00039463046FFF778FFA06002B0BDE8F081DD
:1029D0000C4B1E6816F00406ABD01B68C3F3C10392
:1029E000094E1E41A5E7074B1E6816F48076A0D05D
:1029F000064E9EE7034B1E6816F4003699D0044E2F
:102A000097E700BF004402580090D00300093D0042
:102A100040787D01154B1B6903F03803182B0ED845
:102A2000DFE803F00F0D0D0D0D0D0D0D210D0D0D3A
:102A30000D0D0D0D160D0D0D0D0D0D0D18000020B9
:102A400070470A4B1B68C3F3C1030948184170471C
:102A50000848704700B585B001A8FFF75BFF0198F3
:102A600005B05DF804FB0448704700BF00440258FD
:102A70000090D00340787D0100093D002DE9F04130
:102A800082B00446394B9B6A03F00303012B5ED0EE
:102A9000022B63D0002B4FD00026002323606360FD
:102AA000A360324B9F6AC7F305379A6BC2F30802E3
:102AB00002F10108DD6A15F0100502D0DD6BC5F3E7
:102AC000CC05002F35D0294BDB6A13F4002F0CD036
:102AD000264B9B6BC3F34623013300932B464246A0
:102AE00039463046FFF7E8FE2060204BDB6A13F4DE
:102AF000801F0CD01D4B9B6BC3F306430133009327
:102B00002B46424639463046FFF7D6FE6060174BEB
:102B1000DB6A13F4001F0CD0144B9B6BC3F30663EA
:102B2000013300932B46424639463046FFF7C4FE38
:102B3000A06002B0BDE8F0810C4B1E6816F00406E0
:102B4000ABD01B68C3F3C103094E1E41A5E7074B79
:102B50001E6816F48076A0D0064E9EE7034B1E68D2
:102B600016F4003699D0044E97E700BF004402588F
:102B70000090D00300093D0040787D012DE9F0412F
:102B800082B004463A4B9B6A03F00303012B60D0EA
:102B9000022B65D0002B51D00026002323606360F8
:102BA000A360334B9F6AC7F305571A6CC2F3080240
:102BB00002F10108DD6A15F4807502D05D6CC5F381
:102BC000CC05002F18BF002E35D0294BDB6A13F43B
:102BD000800F0CD0264B1B6CC3F3462301330093AC
:102BE0002B46424639463046FFF766FE2060204BB2
:102BF000DB6A13F4000F0CD01D4B1B6CC3F30643B0
:102C0000013300932B46424639463046FFF754FEC7
:102C10006060174BDB6A13F0807F0CD0144B1B6C89
:102C2000C3F30663013300932B46424639463046D0
:102C3000FFF742FEA06002B0BDE8F0810C4B1E68B9
:102C400016F00406A9D01B68C3F3C103094E1E4148
:102C5000A3E7074B1E6816F480769ED0064E9CE7CD
:102C6000034B1E6816F4003697D0044E95E700BF5C
:102C7000004402580090D00300093D0040787D01D7
:102C800000B585B0C2B2484BD358020EC0F3042140
:102C90008A401340CB4040EA0340444B98420CD05A
:102CA0003DD8A3F5003398426ED010D9404B9842DE
:102CB00029D003F57D43984221D13E4B186810F08E
:102CC000005019D001A8FFF759FF029814E0A3F5AE
:102CD000407398420FD1FFF79DFE364B9B69C3F3BB
:102CE0000323354AD35C03F01F03D840FFF7BAFD36
:102CF000FFF7C6FD00E0002005B05DF804FBA3F57A
:102D00008033984209D12B4B186810F00060F3D043
:102D100001A8FFF7B3FE0298EEE70020ECE7274B8F
:102D2000984217D00ED9264B984203D003F5407332
:102D3000984227D11F4B186F10F00200DCD04FF4DF
:102D40000040D9E7A3F5803398420ED003F57D43C8
:102D5000984206D1174B186810F48070CCD01948EF
:102D6000CAE7A3F5803398420AD1124B186810F0D5
:102D70000400C1D01B68C3F3C10313481841BBE76B
:102D80000020B9E70020B7E7FFF744FE094B9B6935
:102D9000C3F30323084AD35C03F01F03D840FFF7B3
:102DA00061FDFFF77BFDA7E74C44025808030207CB
:102DB0000803010700440258189300080803040799
:102DC0000800050700093D000090D00370B4036AB5
:102DD00023F001030362036A426885691D4C2C409D
:102DE0000D682C4323F002030D692B4323F00103EC
:102DF0004D682B43184E194DA84218BFB0420DD054
:102E000005F58045A84214BF0025012506F580463A
:102E1000B04203D015B9124DA84212D123F00803D5
:102E20004D6943EA850323F004038D6843EA850373
:102E300022F480728D692A4322F40072CD6942EA3D
:102E4000450242608461CA6842630362002070BC2C
:102E5000704700BF8CFFFEFF0000014000040140EE
:102E60000048014070B4036A23F010030362036A50
:102E7000426885691F4C2C400D6844EA052423F004
:102E800020030D6943EA051323F010034D6843EA5C
:102E90000513194E194DA84218BFB0420DD005F5C3
:102EA0008045A84214BF0025012506F58046B042A2
:102EB00003D015B9124DA84213D123F080034D69F8
:102EC00043EA851323F040038D6843EA851322F417
:102ED00080628D6942EA850222F40062CD6942EA8D
:102EE000C50242608461CA6882630362002070BCCC
:102EF000704700BFFF8CFFFE00000140000401404E
:102F00000048014070B4036A23F480730362036ACB
:102F10004268C5691E4C2C400D682C4323F4007395
:102F20000D6943EA052323F480734D6843EA0523C2
:102F3000184E194DA84218BFB0420DD005F5804576
:102F4000A84214BF0025012506F58046B04203D0F3
:102F500015B9124DA84213D123F400634D6943EA19
:102F6000852323F480638D6843EA852322F480520D
:102F70008D6942EA051222F40052CD6942EA4512F7
:102F80004260C461CA68C2630362002070BC7047BB
:102F90008CFFFEFF0000014000040140004801409A
:102FA00070B4036A23F480530362036A4468C569FA
:102FB000174A2A400D6842EA052223F400530D699E
:102FC00043EA053323F480534D6843EA0533114E39
:102FD000114DA84218BFB0420DD005F58045A8425A
:102FE00014BF0025012506F58046B04203D015B96F
:102FF0000A4DA84204D124F480448D6944EA851422
:103000004460C261CA6802640362002070BC7047F9
:10301000FF8CFFFE00000140000401400048014019
:1030200030B4036A23F480330362036A446D184AA0
:1030300022400C68144323F400330A6943EA024334
:1030400023F480334A6843EA0243124D124A904205
:1030500018BFA8420DD002F58042904214BF002252
:10306000012205F58045A84203D012B90B4A9042CF
:1030700006D1426822F480328D6942EA052242601C
:103080004465CA68816D82650362002030BC704768
:103090008FFFFEFF00000140000401400048014096
:1030A00030B4036A23F480130362036A446D184A40
:1030B00022400C6842EA042423F400130A6943EA1C
:1030C000025323F480134A6843EA0253114D124A13
:1030D000904218BFA8420DD002F58042904214BF22
:1030E0000022012205F58045A84203D012B90B4AFF
:1030F000904206D1426822F480228D6942EA8522FC
:1031000042604465CA68C2650362002030BC7047F3
:10311000FF8FFFFE00000140000401400048014015
:1031200030B50368384A904214BF4FF0000E4FF09C
:10313000010EB0F1804F14BF72464EF00102AAB9E1
:10314000324CA04214BF00240124314DA8420DD0BE
:1031500064B904F1804404F58234A04214BF002411
:10316000012405F50065A84200D01CB123F07003CE
:103170004C68234312BB254A904214BF002201220F
:10318000234CA0421AD0CAB902F1804202F5823221
:10319000904214BF0022012204F50064A0420DD029
:1031A00062B91C4A904214BF0022012204F59A34ED
:1031B000A04203D012B9184A904204D123F4407CB3
:1031C000CB684CEA030303608A68C2620A888262A1
:1031D000124A904214BF73464EF0010363B90D4B7F
:1031E000984214BF0023012302F57052904203D08D
:1031F00013B9094B984201D10B690363436943F04A
:1032000001034361002030BD000001400008004080
:103210000004004000440140004801400004014017
:1032200008B50B461146B3F5805F1DD00ED8102BA4
:1032300017D0B3F5807F02D1FFF764FE05E0012BC4
:1032400002D1FFF7C3FD00E0012008BDB3F5803FC8
:103250000DD0B3F5801F02D1FFF722FFF5E7012063
:10326000F3E7FFF7FFFDF0E7FFF79AFEEDE7FFF763
:10327000D7FEEAE738B5036813F0010F40F08A8003
:1032800004460D460368444A1A408B6809690B439B
:1032900069690B43E9690B4313430360EB684268B8
:1032A00022F4405213434360AB69826822F44072B7
:1032B00013438360394B984216D0394B98421CD047
:1032C000384B98421DD0384B98421ED0374B98420D
:1032D0001FD0374B984220D0364B984221D0364BE6
:1032E000984222D001204EE03448FFF7C9FC002864
:1032F00048D06A68EAB9012045E03148FFF7C0FCD0
:10330000F5E72F48FFF7BCFCF1E72D48FFF7B8FCC5
:10331000EDE72B48FFF7B4FCE9E72848FFF7B0FCDE
:10332000E5E72748FFF7ACFCE1E72548FFF7A8FCF5
:10333000DDE72B68E9690B2B0FD872B1B1F5004FAF
:103340000DD0DBB21F4951F82330B0FBF3F303EB90
:103350005203B3FBF2F39BB2E360002013E0DBB255
:10336000184951F82330B0FBF3F0530803EB400049
:10337000B0FBF2F34FF6F0721A40C3F3420313436B
:10338000E360EAE70120E26A22F00F022B88134390
:10339000E36238BD0120FCE7F369FFEF0010014054
:1033A0000044004000480040004C004000500040F5
:1033B0000014014000780040007C00400803000732
:1033C0000800000728930008064BA3FB00239B0975
:1033D000013B4FF0E0225361002393610523136109
:1033E000704700BFD34D621082B04FF0E0231B69DD
:1033F0000193019BB0F1FF3F00D0013038B14FF095
:10340000E0231B6913F4803FF8D00138F6E702B0DF
:1034100070470000014B1860704700BF8000002417
:10342000014B1868704700BF8400002470B50D4E32
:103430000D4D761BB61006D0002455F8043B013420
:103440009847A642F9D1094E094D761B05F04CFF6D
:10345000B61006D0002455F8043B01349847A64224
:10346000F9D170BD60970008609700086897000860
:1034700060970008830730B548D0541E002A3FD01B
:10348000CAB2034601E0013C3AD303F8012B9D0781
:10349000F9D1032C2DD9CDB245EA05250F2C45EAEB
:1034A000054536D9A4F1100222F00F0C03F1200ECD
:1034B000E6444FEA121C03F1100242E9045542E9C6
:1034C000025510327245F8D10CF1010214F00C0FC4
:1034D00003EB021204F00F0C13D0ACF1040323F041
:1034E00003030433134442F8045B9342FBD10CF012
:1034F00003042CB1CAB21C4403F8012B9C42FBD13B
:1035000030BD64461346002CF4D1F9E70346144657
:10351000BFE71A46A446E0E70EB410B59DB06FF0C1
:1035200000411FABCDE906010491094953F8042B72
:103530000290084C0868019302A9059400F00CF869
:10354000029B00221A701DB0BDE8104003B0704706
:10355000840000240802FFFF2DE9F04FD5B00C468F
:103560000C9191460E930A9002F084FE0368179323
:103570001846FDF7E5FEA3891690190603D52369C1
:10358000002B00F08B8700242BAB4D46CDE929445E
:10359000CDE91944CDE91B44129428939846189418
:1035A000002308940024CDE914342B78002B00F07C
:1035B000DD81AA4604E01AF8013F002B00F01681D5
:1035C000252BF8D1BAEB050640F014819AF80030AB
:1035D000002B00F0CB8100234FF0FF329AF80160FE
:1035E0008DF8833009930AF1010A07921F462B24B4
:1035F0004FF020090AF1010AA6F120035A2B00F22C
:103600002D81DFE813F0BA022B012B01B5022B014B
:103610002B012B016A002B012B014F02E3022B012E
:103620005A02C9022B01C4025B005B005B005B0015
:103630005B005B005B005B005B002B012B012B013F
:103640002B012B012B012B01BF012B011A0286003C
:10365000BF01BF01BF012B012B012B012B01B002C8
:103660002B012B01C3002B012B012B0124022B0169
:103670005F022B012B013C072B012B012B012B019E
:103680002B012B012B012B01BF012B011A028800FA
:10369000BF01BF01BF01A302880081002B01960278
:1036A0002B018202C500700281002B0124027E00E2
:1036B00039072B012B0119072B017E00A6F13003DE
:1036C00000221AF8016B02EB820203EB4202A6F120
:1036D0003003092BF5D909928EE7DDF828B058465A
:1036E00002F0C8FD43681B931846FDF729FE1C90A5
:1036F0000646584602F0BEFD83681993002E40F03E
:103700007A869AF8006075E79AF8006047F020071B
:1037100070E747F01007BA060E9B40F1808107332F
:1037200023F007031A465B6852F8084B0E9299463D
:10373000002BC0F25F85079B013301F01F8054EA24
:10374000090327F0800B00F0E3840A2C79F10003D1
:1037500080F08187303401238DF84F415F460B9311
:103760000DF24F1507990B989DF8832081424FF079
:103770000003B8BF01460D9306910F931393109366
:10378000002A7CD0069B0133069378E047F01007AF
:1037900017F0200900F034810E9B073323F0070354
:1037A000D3F8049053F8084B0E9327F4806B002352
:1037B00000228DF88320079A511C00F00D8254EAF4
:1037C00009012BF0800740F00682002A41F01080AA
:1037D000002B40F0A2841BF001030B9300F037850F
:1037E00030238DF84F310DF24F15BBE7BAEB0506CC
:1037F00000F0BC802A9B33442A93299B0133072B7A
:10380000C8E90056299305DC08F10808089B3344F1
:103810000893DBE60C990A9828AA03F019FC80B9F2
:103820000DF1AC08F2E70C990A9828AA03F010FCF5
:10383000002800F08C800D9B1BB10D990A9802F0B6
:1038400013FC0C9B9B8913F0400F089B18BF4FF093
:10385000FF330893089855B0BDE8F08F002E00F0B4
:10386000858000228DF8EC608DF88320012306937B
:103870000D920B9307920F92139210923BAD17F09B
:10388000020302D006990231069117F0840B07D18A
:1038900009990698A1EB0009B9F1000F00F315830F
:1038A0002A9C8AB1299A0DF1830101320134C8F8AA
:1038B0000010072A4FF001012A942992C8F8041039
:1038C00000F3468308F1080883B1299B21AA01333C
:1038D0000234C8F80020072B4FF002022A942993E3
:1038E000C8F8042000F3488308F10808BBF1800FF2
:1038F00000F00E82079B0B9AA3EB020BBBF1000FAB
:1039000000F34F82FB0500F1A5810B9BC8F8043042
:103910001C44299BC8F800500133072B2A94299393
:1039200000F3C78208F108087B0705D5099B069AB2
:103930009D1A002D00F32C83DDE9083206998A4296
:10394000ACBF9B185B180893002C7FF46CAF00236E
:1039500029930D9B1BB10D990A9802F085FB0DF17F
:10396000AC0855462B78002B7FF423AE2A9B002B06
:103970003FF467AF0C9C0A9828AA214603F068FB25
:10398000A38960E70E9B073323F00702F2E80234B5
:10399000CDE91434DDE9143424F000440E92994644
:1039A00018462146A74B4FF0FF32FDF7BFFD002818
:1039B00040F06284A34B484621464FF0FF32FDF7AA
:1039C00097FD002840F05884DDE91401002200230F
:1039D000FDF784FD002840F0AD879DF883209A4DC7
:1039E0009A4B27F080070321472EC8BF1D460023AE
:1039F0000D9306910B9107930F9313931093BFE6CA
:103A000017F0100340F02E8417F0400200F05487A6
:103A10000E9A52F8044B0E929946A4B2C5E653F89A
:103A2000044B0E93FB0600F118847D0640F11284CE
:103A300044F3C0394B4624B27AE60E9B002253F879
:103A4000041B8DF883208DF8EC100E930EE70E9C6E
:103A5000079B54F8045B4FF000098DF88390002D0C
:103A600000F0D5865A1C00F052851A464946284671
:103A7000FDF75EFB0D90002801F057800D9BCDF8FF
:103A80001C905B1B0B930E9423EAE3739DF8832039
:103A90000693CDF83490CDF83C90CDF84C90CDF80D
:103AA00040906DE60E9B53F8042B0992002A80F299
:103AB000C983099A0E93524209929AF8006047F01E
:103AC000040797E547F0100B1BF0200900F08183F5
:103AD0000E9B073323F00703D3F8049053F8084BE9
:103AE0000E93012364E60E9B53F8044B0E93302390
:103AF00078268DF88430564B189347F0020B8DF8DA
:103B000085604FF00009022352E6BD0600F1828471
:103B1000FC0600F17386780600F13C87B90540F198
:103B20006D860E9B089953F8042B0E931170554621
:103B300018E79AF800606C2E03BF9AF8016047F00E
:103B400020070AF1010A47F0100753E59AF80060D0
:103B5000682E03BF9AF8016047F400770AF1010A62
:103B600047F0400746E59AF8006047F0080741E54E
:103B70009AF8006047F001073CE59DF88330002B80
:103B80007FF4BFAD9AF800608DF8839032E59AF823
:103B9000006047F080072DE5524612F8016B2A2E8F
:103BA00001F0CD81A6F13003092B924698BF002287
:103BB00001F288801AF8016B02EB820203EB4202E9
:103BC000A6F13003092BF5D9079215E59AF80060A4
:103BD0008DF883400EE5BB46012B3FF4B6AD022BBA
:103BE00054AD12D1189A04F00F032409D35C05F8E0
:103BF000013D44EA09744FEA191954EA0903F2D164
:103C000054AB5B1B5F460B93ACE504F00703E40881
:103C100044EA49744FEAD909303354EA09012A4683
:103C200005F8013DF1D11BF0010FE9D0302BE7D0B1
:103C30003023023A05F8013C54AB9B1A5F460B93C4
:103C400015468FE5FFFFEF7F5C9300086093000847
:103C50006C930008652E40F3E680DDE91401002234
:103C60000023FDF731FC002800F0CD81299BBF4ADD
:103C7000C8F80020013301340122072B2A9429932C
:103C8000C8F8042000F37D8508F10808229B129AE9
:103C9000934280F2D382169B179A1C44C8E90023F2
:103CA000299B2A940133072B299300F3EB8308F116
:103CB0000808129B5D1E002D7FF736AE102D299B44
:103CC000DFF8AC9240F36E8549462246B946DDF8EE
:103CD00028B00C9C10260F4605E008F10808103D9E
:103CE000102D40F35B8501331032072BC8E90076B5
:103CF000CDE92932F1DD28AA2146584603F0A8F97A
:103D000000287FF498ADDDE929320DF1AC08E6E733
:103D1000099B069AA3EB020BBBF1000F7FF7EAADFC
:103D2000BBF1100F299ADFF848922CDD1D96214631
:103D30004E460C9CDDF82890102306E0ABF1100BEA
:103D4000BBF1100F08F108081ADD01321031072A03
:103D5000C8E90063CDE92921F0DD28AA21464846BB
:103D60000DF1AC0803F074F900287FF464ADABF1F9
:103D7000100BBBF1100FDDE929214FF01003E4DC3B
:103D8000B1461D9E0C4601325C44072ACDE9292428
:103D9000C8F80090C8F804B000F31D8508F10808C1
:103DA000A8E5BBF1100F299ADFF8C4912DDD41463B
:103DB0002046A8464C460C9DDDF82890102306E0CE
:103DC000ABF1100BBBF1100F01F1080119DD01324D
:103DD0001030072AC1E90043CDE92920F0DD28AAE7
:103DE0002946484603F034F900287FF424ADABF1AE
:103DF000100BBBF1100FDDE929202BA94FF01003A8
:103E0000E5DC4546A1468846044601325C44072A63
:103E1000CDE92924C8F80090C8F804B000F3CC819B
:103E200008F108086EE5129B012B40F37C81299E66
:103E3000C8F80050013601340123072E2A94299630
:103E4000C8F8043000F3E08108F10808169B179ABF
:103E500001361C44072EC8E90023CDE9296400F38C
:103E6000E08108F10808DDE9140100220023FDF7D4
:103E70002BFB002840F07481129B0136013B013579
:103E80001C44072EC8F800502996C8F804302A941C
:103E900000F3598108F108081A9BC8F8043001366C
:103EA0001C44072E24ABCDE92964C8F800307FF705
:103EB00039AD0C990A9828AA03F0CAF800287FF4B3
:103EC000BAAC2A9C0DF1AC082EE5B9F1100FDDE972
:103ED00029212BDDCDE91D3B1F96DDF828B04E468C
:103EE0001024A9460C9D04E0103E102E08F108088D
:103EF00017DD01321F4B1031072AC8E90034CDE924
:103F00002921F1DD28AA294658460DF1AC0803F015
:103F10009FF800287FF48FAC103E102EDDE9292198
:103F2000E7DCDDE91D3B4D46B1461F9EC8F8049015
:103F3000013209EB0104072A0E49C8F80010CDE947
:103F4000292400F3FF839DF8832008F10808A8E4E2
:103F50000C990A981D9328AA03F07AF800287FF498
:103F60006AAC2A9C1D9B0DF1AC08ADE49C93000843
:103F7000B0930008A09300080C990A9828AA03F0AF
:103F800067F800287FF457AC2A9C0DF1AC08ADE42B
:103F9000102D299B21DD0A9FDDF83090102604E0CA
:103FA000103D102D08F1080817DD0133B04A103418
:103FB000072BC8E90026CDE92934F1DD28AA4946B6
:103FC00038460DF1AC0803F043F800287FF433AC19
:103FD000103D102DDDE92934E7DC0133A44AC8F88F
:103FE00004502C44072BCDE92934C8F800207FF772
:103FF000A3AC0C990A9828AA03F02AF800287FF4A9
:104000001AAC2A9C98E42299002940F36683DDF8D3
:104010004090129B9945A8BF9946B9F1000F0BDD5E
:10402000299B01334C44072BC8E900592A94299352
:1040300000F32F8508F10808109EB9F1000FA8BF02
:10404000A6EB0906002E00F33882DDF840B07805B3
:10405000AB4400F16682229B129A934202DBF9077D
:1040600040F18E84169A17991444C8E90012299ACF
:104070002A940132072A299200F3188508F10808CA
:10408000129AAE18A6EB0B06D51AAE42A8BF2E4662
:10409000002E0DDD299BC8F800B001333444072BF6
:1040A000C8F804602A94299300F31A8608F10808D6
:1040B000002EA8BFAD1B002D7FF736AC102D299B1D
:1040C000DFF8B09140F36E8349462246B946DDF8E9
:1040D00028B00C9C10260F4605E008F10808103D9A
:1040E000102D40F35B8301331032072BC8E90076B3
:1040F000CDE92932F1DD28AA2146584602F0A8FF71
:1041000000287FF498ABDDE929320DF1AC08E6E731
:10411000079B002B7FF41EAB5F46002307930B9396
:1041200054ADFFF71FBBFA073FF581AE299EC8F8D3
:104130000050013601340123072E2A942996C8F82D
:1041400004307FF7A7AE0C990A9828AA02F080FFE6
:1041500000287FF470ABDDE929640DF1AC089BE623
:10416000129B5D1E002D7FF797AE102DDFF8049196
:1041700040F39683224607970A9C0C9F4FF0100B42
:1041800005E008F10808103D102D40F38783013643
:104190001032072EC8E9009BCDE92962F1DD28AA7B
:1041A0003946204602F054FF00287FF444ABDDE995
:1041B00029620DF1AC08E6E70C990A9828AA02F0EA
:1041C00047FF00287FF437AB2A9C0DF1AC08FFF7BE
:1041D00099BB1BF0100340F028811BF0400200F057
:1041E00079830E9A52F8044B0E929946A4B2012399
:1041F000FFF7DEBA2D2364428DF8833069EB49095D
:10420000BB460123FFF7D7BA0C990A9828AA02F0F7
:104210001FFF00287FF40FABDDE929640DF1AC0826
:1042200014E60C990A9828AA02F012FF00287FF4DD
:1042300002ABDDE929640DF1AC0814E6FD077FF55A
:1042400073AB28E59AF800600E93FFF7D3B954AD2D
:10425000FFF788BAB80500F1A6834FEAE4794B4628
:10426000FFF766BA0E9B53F8044B0E93FFF79DBA07
:10427000A0930008B0930008DDE9140102460B4644
:10428000FDF754F9002840F00F86612E00F04585B7
:10429000412E00F06D84079B013326F02003069326
:1042A00000F0A983472B00F08885DDE9141247F45C
:1042B00080730F931346002BC0F292850B9300235B
:1042C0001D938B460D93069B462B00F0FD83452BDB
:1042D00000F044850799019126A9049123A903912F
:1042E00022A9029102210B9B0A9800915A4600F0E4
:1042F000F3FE069B472B054640F0318617F0010F71
:10430000B9460F9F40F0FC84269B5B1B1293069BD3
:10431000472B00F08283069B462B00F01284229BE1
:104320001093109B069A013B412A229300F0AD8521
:10433000F2B20021002BB8BF109B8DF89020BABFBD
:10434000C3F101032D222B22092B8DF8912040F37C
:104350008D850DF19F04B64F2246104687FB032141
:10436000DA17C2EBA10202EB8201A3EB410130316B
:1043700000F8011C19466329134600F1FF32ECDCFA
:104380003033D9B2831E9C4202F8011C40F2F18501
:1043900013460DF1920201E013F8011B02F8011B14
:1043A0009C42F9D10DF1A1030DF192021B1A1344A5
:1043B00024AA9B1A1A93129B1A9A012B1A440B9245
:1043C00040F39E850B9B169A13440B930B9A002384
:1043D00029F4806722EAE27247F480770F9306920D
:1043E000139310931D9B002B40F03F839DF8832077
:1043F0000793FFF7C5B9199B002B3FF482A9199BBE
:104400001B78002B3FF47DA99AF8006047F4806781
:10441000FFF7F0B80E9B089853F8041B0E93C217D1
:10442000C1E900025546FFF79DBA0E9B53F8044BB5
:104430000E930123FFF7BCB97E4B189317F02009A8
:1044400000F0EC800E9B073323F00703D3F80490B1
:1044500053F8084B0E93F80709D554EA090306D020
:1044600030238DF8856047F002078DF8843027F4FB
:10447000806B0223FFF79CB9BB46FFF725BB6E4B51
:104480001893DBE70C990A9828AA02F0E1FD0028AE
:104490007FF4D1A92A9C0DF1AC080AE40A984021C6
:1044A00001F0F4FE0C9B18601861002800F065858F
:1044B0000C9A40235361FFF766B8102E299BDFF852
:1044C0007C9140F32982484642462146A846B94697
:1044D0000A9C0C9D4FF0100B074604E00832103E7A
:1044E000102E40F3138201331031072BC2E9007BF9
:1044F000CDE92931F2DD28AA2946204602F0A8FD9F
:1045000000287FF498A9DDE929312BAAE7E728469E
:10451000CDF81C900E94FCF713FF03460B90FFF7A9
:10452000B3BA129BCDF82CA04246DDF84C80109710
:10453000EB1807935E46199FDDF87090DDF828A010
:10454000DDF830B00F9B13952146B8F1000F2FD046
:10455000002B30D1013F08F1FF381B9BC2E9003925
:10456000299B01334944072B2A91299368DC08329F
:10457000079B38789B1B8342A8BF0346002B1C4631
:104580000BDD2998013019440728C2E900632A91FC
:10459000299000F3148138780832002CACBF051B39
:1045A0000546002D0BDC06440F9BB8F1000FCFD160
:1045B000002B00F023820F9B013B0F93CDE7102DC2
:1045C00029981DDD102404E0103D102D02F1080291
:1045D00016DD0130194B10310728C2E90034CDE94E
:1045E0002901F1DD28AA5946504602F031FD002884
:1045F0007FF421A9103D102DDDE929012BAAE8DC6B
:1046000001300E4B556029440728CDE9290113607C
:1046100000F33282387808320644C5E717F01003F9
:1046200000F0A1800E9B53F8044B0E9313E700BFDC
:10463000676666666C93000880930008B093000874
:1046400028AA5946504602F003FD00287FF4F3A83B
:104650002A992BAA8CE70BF4806300220696CDF8EA
:104660002CA0CDF8348054AFDDF864809A4616460D
:104670000CE00023204649460A22FCF795FF0A2C4D
:1046800079F100031BD3044689462F4620460A22AF
:1046900000234946FCF788FF30327D1E013607F8BB
:1046A000012CBAF1000FE4D098F800309E42E0D11E
:1046B000FF2EDED00A2C79F1000380F0408154AB4C
:1046C0005B1BDDF82CA0CDF864801296DDF83480F9
:1046D000069E0B935F46FFF745B8299BBC4AC8F876
:1046E0000020013301340122072B2A942993C8F8B2
:1046F000042000F3388108F10808002940F0978071
:10470000129A07F0010313433FF40EA9169B179961
:104710001A19C8E90013299B2A920133072B299300
:1047200000F3478108F108081299C8F800500133D6
:104730008C18072BCDE92934C8F804107FF7F2A8AC
:10474000FFF7B7BB0C990A981D9328AA02F080FCCA
:1047500000287FF470A89DF883202A9C1D9B0DF1F2
:10476000AC08FFF79EB817F0400200F0C2800E9A26
:1047700052F8044B0E929946A4B26CE6BB46FEF783
:10478000E4BF0C990A9828AA02F062FC00287FF482
:1047900052A82A9C0DF1AC08FFF778BA14463A46A5
:1047A0004F46914601332C44072BC8F80090C8F8B7
:1047B0000450CDE929347FF7B5A8FFF77ABB28AAC2
:1047C0005946504602F044FC00287FF434A838785B
:1047D0002A992BAAE1E60C990A9828AA02F038FC3B
:1047E00000287FF428A82A9C0DF1AC08FFF782B8B6
:1047F000012BBB467FF4F3A9FEF7ACBF0E9B0899D3
:1048000053F8042B554611600E93FFF7ABB8062BF7
:10481000294628BF062307950D952A4606936D4D18
:104820000E940B930F9113911091FEF7A9BF169B55
:1048300017981A19C8E90003299B2A920133072BFC
:10484000299300F3B68008F108080029BFF66CAF81
:104850004E421031DFF8809180F297824146DDF8B8
:1048600028B0A84610240C9D04E00831103E102EFC
:1048700040F3898201331032072BC1E90094CDE95E
:104880002932F2DD28AA2946584602F0E1FB002829
:104890007EF4D1AFDDE929322BA9E7E7079F144663
:1048A00001362C44072ECDE92964C8F80090C8F8D9
:1048B00004507FF7EFAA46E40E9B17F4007914BF6B
:1048C00053F8044B53F8044B0E931CBF9146E4B2CB
:1048D000FEF76BBF0E9B1BF4007914BF53F8044B1B
:1048E00053F8044B0E931CBF9146E4B20123FEF72C
:1048F0005FBF0E9B17F4007914BF53F8044B53F8B5
:10490000044B0E931CBF9146E4B2A4E54546904685
:104910003A460C464F46914601333444072BCDE9C5
:104920002934C8F80090C8F8046057DC08F108087A
:10493000FFF78BBB2D228DF88320FFF750B81C9B0F
:104940001B99ED1A1A46284602F050FB98F80130E0
:104950000BB108F10108204649460A22002300262F
:10496000FCF722FE8FE60C990A9828AA02F070FB49
:1049700000287EF460AF22992A9C0DF1AC08BCE6B9
:10498000129AAE18A6EB0B06D51AAE42A8BF2E4659
:10499000FFF78EBB0E9B089953F8042B0E931180E2
:1049A0005546FEF7DFBF44F3C0194B4664B2FEF72D
:1049B000BFBE0C990A9828AA02F04AFB00287EF490
:1049C0003AAFDDE9293222990DF1AC083DE700BF8D
:1049D0009C93000894930008B09300080C990A98DF
:1049E00028AA02F035FB00287EF425AF2A9C0DF1A1
:1049F000AC08FFF72ABB0623079356E4DDE912351E
:104A0000EB189E421997B346DDF82CA0109F9046F4
:104A10000C4628BF9B46FFF71EBB229B1093DA1C57
:104A200002DB079A934204DD023E26F02003069340
:104A300077E4109B129A9342C0F2488119F0010F5B
:104A400000F01182169A13440B9319F4806F03D06F
:104A5000109B002B00F3C7810B9B23EAE3730693A3
:104A6000672600230F931393BCE42D2200238DF8B7
:104A700083200793FEF786BE28AA5946504602F0C7
:104A8000E7FA00287EF4D7AE38782A992BAA064494
:104A90008AE50C990A9828AA02F0DAFA00287EF42E
:104AA000CAAE2A9C0DF1AC08FFF7C6BA0C990A9859
:104AB00028AA02F0CDFA00287EF4BDAE229B2A9CE3
:104AC0000DF1AC08FFF7DCBA0799019126A9049112
:104AD00023A9039122A9029103210B9B0A9800911B
:104AE0005A4600F0F9FA0378302B054600F0F181C0
:104AF000229B079AB94613440F9FEC180B9958460E
:104B000000220023FCF7E0FC10B12346FFF7FDBBB9
:104B1000269BA342BFF4F9AB30215A1C2692197090
:104B2000269B9C42F9D8FFF7F0BB079B9DF883209A
:104B30000E9406930B9307900F9013901090FEF72E
:104B40001FBE229A1092002A40F3E081079909F0D3
:104B500001030B4340F0B781109B0B93662619F4B9
:104B6000806F40F041810B9B23EAE373069378E763
:104B700030238DF8843058238DF88530079B632BC4
:104B800047F0020400F3BF8000230D933BADDDE945
:104B9000141247F481730F931346002B2746C0F27B
:104BA00085800B9326F02003069300238B461D93EC
:104BB000612E00F04081412E7FF485AB22AA0B9933
:104BC000584602F0C9F900224FF07F53FBF754FD1D
:104BD00002460B46CDE9102300220023FCF774FCAB
:104BE00008B101232293AC4B0B93079BCDE912A68E
:104BF000CDE91E78DDF82CA0DDE9106703F1FF395F
:104C0000AB46109506E00022002309F1FF39FCF7BE
:104C10005BFCE8B9A14B002230463946FBF72CFD7E
:104C20000F460646FCF798FC0446FBF7BBFC0B4618
:104C3000024639463046FBF767FB1AF80430B9F1F3
:104C4000FF3FD8464D460BF8013B06460F46DAD1EA
:104C500030463946924BDDF848A0139ECDF8488087
:104C60000022A946DDF87C80109D1E9FCDE9100131
:104C7000FCF752FC002855D1DDE91001884B0022D9
:104C8000FCF722FC08B1E1074CD44B46002B06DBB5
:104C900001335B4430220BF8012B5B45FBD1ABEBBE
:104CA0000503B94612930F9FFFF731BB26F020038F
:104CB0000693DDE914349B4604F100430B932D2346
:104CC0001D9375E700230793FEF796BC129B169A77
:104CD0009A18109B0B92002B40F3098167263EE740
:104CE0000C990A9828AA02F0B3F900287EF4A3AD23
:104CF000229D129B2A9C5D1B0DF1AC08FFF7D8B9D1
:104D0000079BEC18FAE60A98591C01F0BFFA054611
:104D1000002800F026810D9039E730238DF884308B
:104D2000782329E7129B26930B9B1BF8012CD97B38
:104D30008A425B4609D1302003F8010C269B5A1E9B
:104D4000269213F8012C9142F6D0392A0BBF0B9A08
:104D50000132927AD2B203F8012CA0E707990B9B9B
:104D60000A984C1C26A9049123A9039122A9029117
:104D700002215A460194009100F0AEF90546B94669
:104D80002C440F9FBAE64546884601333244072B30
:104D9000CDE92932C8F80090C8F804607FF7C2ACAA
:104DA0000C990A9828AA02F053F900287EF443AD22
:104DB000DDE929320DF1AC08B6E4079B002B08BFF2
:104DC0000123079347F480730F93159B002BC0F2C8
:104DD000B180DDF850B00D900B931D90FFF77ABABB
:104DE00000230D9365E7672619990B78FF2B00F0D8
:104DF000B2800024109A204603E001300131FF2BDD
:104E000008D0934206DAD21A4B78002BF5D10B78F2
:104E10000134F4E71991109213900F940F9A139B99
:104E20001C9913440B9A01FB03230B9323EAE373AE
:104E30000693FFF7D7BA22AA0B99584602F08CF8CE
:104E400000224FF07F53FBF717FC02460B46CDE9DB
:104E5000102300220023FCF737FB08B10123229323
:104E6000104B0B93C1E6109B0B93EEE5002963D129
:104E700030228DF892200DF19302303302F8013B7D
:104E800024ABD31A1A93FFF796BA06F10F02D2B2E7
:104E90000121FFF74FBA00BF8093000800003040A7
:104EA0000000E03F6C930008159B384D002BB4BF09
:104EB0002D229DF88320364BB8BF8DF8832027F034
:104EC0008007FEF790BD169BD31819440B916626F8
:104ED00045E60B99584600220023FCF7F5FA002816
:104EE0007FF406AE079BC3F10103229301E6C3F1F1
:104EF00001031A4422EAE2730B9206936726B0E597
:104F000019F0010F3FF462AAFFF75CBA079A09F0A3
:104F1000010959EA020304D10123069366260B9383
:104F20009FE5169B01331A4422EAE2730B92069323
:104F3000662696E50D90BCE60DF192029DE70E9B6C
:104F40009AF80160924653F8042B0E9342EAE272FB
:104F50000792FEF74FBB00230F9313935EE7079C66
:104F60000DE70C998B8943F0400213468A81FEF7C6
:104F70006ABC02231A93FFF71EBA0A9A0C23136025
:104F80004FF0FF330893FEF765BC00BF6493000841
:104F900068930008024B13B1024800F005B870474F
:104FA000000000009D5F0008002301461A461846D5
:104FB00002F0CAB82DE9F04F03690C69A34283B02F
:104FC000C0F28680013C01F11405A30000F1140831
:104FD000009355F8243058F8242001338A469A4229
:104FE00008EB8401814605EB84070191B2FBF3F6DF
:104FF00038D30023AE4640469B465EF8041B026849
:105000001FFA81FC06FB0C33090C4FEA134C06FB1C
:1050100001CC99B2ABEB01011FFA8CF311FA82F1CA
:10502000C3EB124202EB214289B241EA02417745C9
:1050300040F8041B4FEA1C434FEA224BDDD2009B91
:1050400058F8033073B9019B043B984504D307E03B
:10505000984504F1FF3403D253F80429002AF7D00D
:10506000C9F810405146484601F04EFE00282BDB9F
:1050700001364046002355F8041BD0F800C08AB220
:105080009A1A0B0C12FA8CF2C3EB1C4303EB22436B
:1050900092B242EA0342AF4240F8042B4FEA234364
:1050A000E9D258F8242008EB84036AB9043B9845F8
:1050B00004D307E0984504F1FF3403D253F80429E0
:1050C000002AF7D0C9F81040304603B0BDE8F08F91
:1050D000002003B0BDE8F08F2DE9F04F016C99B0CE
:1050E00090469946CDE90489259D044641B1426C1C
:1050F0004A60012393408B6001F0AAFB00232364E4
:10510000B9F1000AB4BF012300232B60764BBCBF6A
:105110002AF0004ACDF814A033EA0A0300F0AA806E
:10512000DDE904231046194600220023CDE90A01D7
:10513000FCF7CAF9074670B1249A01231360269B35
:10514000002B00F0E48269481860431E0393039823
:1051500019B0BDE8F08F16AB019317AB0093204652
:10516000DDE90A2301F096FE5FEA1A56054640F093
:105170009780DDE916763E4406F23240202840F35F
:10518000B583C0F140000AFA00FA06F2124028FA8C
:1051900000F04AEA0000FBF7F5F90123013EA1F116
:1051A000F8710F93524B0022FBF7AEF848A3D3E9F6
:1051B0000023FBF761FA48A3D3E90023FBF7A6F825
:1051C000804630468946FBF7EDF945A3D3E9002335
:1051D000FBF752FA02460B4640464946FBF796F863
:1051E00080468946FCF7B8F90022834600234046F2
:1051F0004946FCF773F9002840F07C82BBF1160F9A
:1052000000F26B823B4B03EBCB03D3E90023DDE9D8
:105210000A01FCF763F9002872D00023BE1B0E932D
:10522000731E0BF1FF3B069300F15E82002309938E
:10523000BBF1000F6BDA099BCDF81CB0A3EB0B039D
:105240000993CBF100030D93229B092B4FF0000B28
:1052500066D8052B40F34883043B22930026229B0B
:10526000023B032B00F26886DFE813F05C0459046C
:1052700050043304249A42F20F73CAF3130A1360E2
:105280005AEA08031AD1269B002B00F064861A4BB9
:1052900003930833269A0398136019B0BDE8F08F82
:1052A000DDE90A12C2F31303084643F07F510F975A
:1052B000A6F2FF36169F41F4401173E7269B002BA0
:1052C00040F0EA830D4B039341E700BFAFF300804A
:1052D00061436F63A787D23FB3C8608B288AC63FFC
:1052E000FB799F501344D33F0000F07F9D9300084B
:1052F0000000F83F10950008C4930008C093000810
:10530000BE1B731E069300F185840E900990069BC8
:105310005B44CDE9063B00230D93229B092B98D9D2
:105320000023CDE9223301264FF0FF330C9608937A
:10533000089B129300216164204601F063FA0390F8
:10534000002800F00186039B2364089B0E2B00F2CB
:105350001381002E00F010810799002940F35C842E
:10536000AE4B01F00F0203EBC2034FEA2118C9054F
:10537000D3E9006740F11484A94BDDE90A01D3E9C0
:105380000823FBF7A3FACDE9100108F00F084FF04E
:10539000030AB8F1000F13D0DFF8849218F0010F60
:1053A00009D030463946D9E90023FBF765F90AF1FF
:1053B000010A06460F465FEA680809F10809EDD1BF
:1053C000DDE9100132463B46FBF780FA804689460C
:1053D0000E9B43B1934B002240464946FCF77EF8B2
:1053E000002840F030855046FBF7DCF842464B463B
:1053F000FBF742F98C4B0022FAF788FFA1F15073BA
:10540000CDE910011193089B002B00F09780079BBA
:105410001493089B13930C9B002B00F0A584139A04
:105420007E4B8249039E03EBC20353E90223002013
:10543000FBF74CFADDE91023FAF766FFCDE910011E
:1054400049464046FCF788F80746FBF7ABF80246AA
:105450000B4640464946FAF757FF3037DDE910233F
:1054600006F8017B80468946FCF738F8002840F0B2
:105470002985CDF854B00027DDE910AB1095139DB8
:1054800013942AE00137AF4280F22C85684B5046D6
:1054900059460022FBF7F0F8654B002282468B4606
:1054A00040464946FBF7E8F889468046FCF754F841
:1054B0000446FBF777F802460B4640464946FAF7A2
:1054C00023FF303406F8014B52465B46804689463E
:1054D000FCF704F8002840F0F38442464B4651495B
:1054E0000020FAF711FF52465B46FBF7F7FF002852
:1054F000C8D0DDE91343109D039A079302E096425A
:1055000000F0C884B24616F8013D392BF7D00133BC
:10551000DBB23370079B01330793C8E15046FBF7BA
:1055200041F842464B46FBF7A7F83F4B0022FAF7FB
:10553000EDFEA1F15073CDE9100111933D4B4046B2
:1055400049460022FAF7E0FEDDE910894B46424663
:1055500006460F46FBF7E0FF8146002840F0AA848C
:10556000DDE91001024601F1004330463946FBF700
:10557000B5FF002840F04583179B002BC0F28C80BC
:10558000079A0E2A00F38880244B03EBC203D3E969
:1055900000AB239B002B1BDA089B002B18DC40F090
:1055A0002E83244B002250465946FBF765F80246ED
:1055B0000B46DDE90A01FBF79BFFDDF820904E4624
:1055C000002800F0C782239BDDF80C80DF43C9E28E
:1055D000DDE90A7852465B4638464146FBF776F9E4
:1055E000FBF7BAFF81460990FAF7DCFF52465B46AB
:1055F000FBF742F8039E0B46024641463846FAF74F
:1056000083FE09F1300306F8013B089B012B00F0F3
:105610005C830694012704951C462AE01095000837
:10562000E89400080000F03F00001C400000E03F4C
:10563000000024400000144052465B464046494664
:10564000FBF744F9FBF788FF0546FAF7ABFF524634
:105650005B46FBF711F801370B46024649464046C8
:10566000FAF752FE05F13003A74206F8013B00F0BD
:105670002983AC4B0022FAF7FFFF0022002380466B
:105680008946FBF721FF0028D6D0049D069C079B86
:1056900001330793B2460AE10C9A002A3DD0229AC0
:1056A000012A40F39C82089B03F1FF380D9B434580
:1056B000C0F26D82A3EB0808089B002BC0F23C836C
:1056C000069A1A440692099A17461A440992012129
:1056D000204601F065F9064623E00123BE1B0E9328
:1056E000731E06937FF5A2ADC6F101030993002353
:1056F00006939DE55846FAF755FF42464B46FBF7A1
:10570000E3FE00287FF47AAD0BF1FF3B76E5864B94
:105710000393039819B0BDE8F08FDDF83480099F3A
:105720000C9E002F0CDD069900290B4608DD099A16
:10573000B942A8BF3B46D21AFF1ACB1A0992069368
:105740000D9BDBB10C9B002B00F05D82B8F1000FCC
:105750000FDD31464246204601F0FEF92A46014659
:105760000646204601F04AF929460546204601F042
:105770006FF80D9BB3EB080240F0D8820121204660
:1057800001F00EF9BBF1000F814600F3B480229BBB
:10579000012B40F386814FF0000A0120BBF1000F7E
:1057A00040F0B580069A104410F01F0000F093807E
:1057B000C0F12003042B40F3D283099BC0F11C00ED
:1057C00003440244099307440692099B002B05DD1C
:1057D00029461A46204601F01FFA0546069B002B73
:1057E00005DD49461A46204601F016FA81460E9B11
:1057F000002B40F03681089B002B40F31D810C9B51
:10580000002B40F0A080079B01330793DDF80C804C
:10581000DDF820A0012707E0294600230A222046C0
:1058200001F020F80137054649462846FFF7C2FB3C
:10583000574500F1300308F8013BEDDB089A002AD8
:10584000C8BF9346039AD8BF4FF0010B934400277B
:10585000294601222046049301F0DEF94946054617
:1058600001F052FA002840F3A8811BF8013C039A8A
:105870000BF1FF3B04E05A4500F0AA811BF8013D03
:10588000392B0BF1010AF6D001338BF80030494671
:10589000204600F0DDFF56B12FB1B74203D03946A4
:1058A000204600F0D5FF3146204600F0D1FF2946C2
:1058B000204600F0CDFF00238AF80030249B079A91
:1058C0001A60269B002B3FF442AC0398C3F800A05B
:1058D00019B0BDE8F08F1C20099B03440993069B77
:1058E00003440744069370E70126B8E4C0F12000A2
:1058F00008FA00F04FE401465A46204601F02CF920
:10590000229B012B814640F3B3814FF0000AD9F866
:10591000103009EB8303186900F0F4FFC0F1200098
:1059200040E700BF000024409C930008314600235C
:105930000A22204600F096FF129B002B064640F3F9
:10594000E782CDE90783002F00F31A81BAF1000F37
:1059500040F0D581B046049B039F089903F00102F3
:105960007B1E1944229B0C92134309910A934946CA
:105970002846FFF71FFB31468346284601F0C4F94D
:10598000424649468246204601F0DEF9C268014699
:105990000BF13003002A42D106902846089301F00B
:1059A000B3F906990490204600F052FF049A089B30
:1059B0001AB90A99002900F09B82BAF1000FC0F2CF
:1059C000638122994AEA010A0C9951EA0A0100F01E
:1059D0005B81002A00F3B481099A3B7007F1010A48
:1059E0009742D34600F0B281294600230A2220467E
:1059F00000F038FF4645054631464FF000034FF0B2
:105A00000A02204612D000F02DFF41460646002330
:105A10000A22204600F026FF57468046A7E7204688
:105A2000049300F015FF049B0122C6E700F01AFF63
:105A30005746064680469AE7229B022B79DC0C9B50
:105A4000002B80D1079B4946013328460793FFF777
:105A5000B1FADDF80CB000F130030BF8013B002780
:105A6000F6E64946284601F04FF90028BFF6C3AED6
:105A7000294600230A22204600F0F4FE079B03F18A
:105A8000FF380C9B0546002B7FF450AF129B002B78
:105A900040F335820893B9E6AF4B03930333FFF726
:105AA000F9BBDDE9041200297FF475AEC2F31303DC
:105AB000002B7FF470AEA94B1340002B00F0FE8149
:105AC000099B01330993069B013306934FF0010AAA
:105AD00063E601230C93239B079A1344129301332B
:105AE000012B1F460893B8BF01270021172F6164BF
:105AF0007FF722AC012204235B0003F11400B842BB
